{
  "_format": "hh-sol-artifact-1",
  "contractName": "MonanimalNFT",
  "sourceName": "contracts/MonanimalNFT.sol",
  "abi": [
    {
      "inputs": [],
      "stateMutability": "nonpayable",
      "type": "constructor"
    },
    {
      "inputs": [
        {
          "internalType": "address",
          "name": "sender",
          "type": "address"
        },
        {
          "internalType": "uint256",
          "name": "tokenId",
          "type": "uint256"
        },
        {
          "internalType": "address",
          "name": "owner",
          "type": "address"
        }
      ],
      "name": "ERC721IncorrectOwner",
      "type": "error"
    },
    {
      "inputs": [
        {
          "internalType": "address",
          "name": "operator",
          "type": "address"
        },
        {
          "internalType": "uint256",
          "name": "tokenId",
          "type": "uint256"
        }
      ],
      "name": "ERC721InsufficientApproval",
      "type": "error"
    },
    {
      "inputs": [
        {
          "internalType": "address",
          "name": "approver",
          "type": "address"
        }
      ],
      "name": "ERC721InvalidApprover",
      "type": "error"
    },
    {
      "inputs": [
        {
          "internalType": "address",
          "name": "operator",
          "type": "address"
        }
      ],
      "name": "ERC721InvalidOperator",
      "type": "error"
    },
    {
      "inputs": [
        {
          "internalType": "address",
          "name": "owner",
          "type": "address"
        }
      ],
      "name": "ERC721InvalidOwner",
      "type": "error"
    },
    {
      "inputs": [
        {
          "internalType": "address",
          "name": "receiver",
          "type": "address"
        }
      ],
      "name": "ERC721InvalidReceiver",
      "type": "error"
    },
    {
      "inputs": [
        {
          "internalType": "address",
          "name": "sender",
          "type": "address"
        }
      ],
      "name": "ERC721InvalidSender",
      "type": "error"
    },
    {
      "inputs": [
        {
          "internalType": "uint256",
          "name": "tokenId",
          "type": "uint256"
        }
      ],
      "name": "ERC721NonexistentToken",
      "type": "error"
    },
    {
      "inputs": [
        {
          "internalType": "address",
          "name": "owner",
          "type": "address"
        }
      ],
      "name": "OwnableInvalidOwner",
      "type": "error"
    },
    {
      "inputs": [
        {
          "internalType": "address",
          "name": "account",
          "type": "address"
        }
      ],
      "name": "OwnableUnauthorizedAccount",
      "type": "error"
    },
    {
      "anonymous": false,
      "inputs": [
        {
          "indexed": true,
          "internalType": "address",
          "name": "owner",
          "type": "address"
        },
        {
          "indexed": true,
          "internalType": "address",
          "name": "approved",
          "type": "address"
        },
        {
          "indexed": true,
          "internalType": "uint256",
          "name": "tokenId",
          "type": "uint256"
        }
      ],
      "name": "Approval",
      "type": "event"
    },
    {
      "anonymous": false,
      "inputs": [
        {
          "indexed": true,
          "internalType": "address",
          "name": "owner",
          "type": "address"
        },
        {
          "indexed": true,
          "internalType": "address",
          "name": "operator",
          "type": "address"
        },
        {
          "indexed": false,
          "internalType": "bool",
          "name": "approved",
          "type": "bool"
        }
      ],
      "name": "ApprovalForAll",
      "type": "event"
    },
    {
      "anonymous": false,
      "inputs": [
        {
          "indexed": false,
          "internalType": "uint256",
          "name": "_fromTokenId",
          "type": "uint256"
        },
        {
          "indexed": false,
          "internalType": "uint256",
          "name": "_toTokenId",
          "type": "uint256"
        }
      ],
      "name": "BatchMetadataUpdate",
      "type": "event"
    },
    {
      "anonymous": false,
      "inputs": [
        {
          "indexed": true,
          "internalType": "uint256",
          "name": "tokenId",
          "type": "uint256"
        },
        {
          "indexed": false,
          "internalType": "string",
          "name": "newLore",
          "type": "string"
        }
      ],
      "name": "LoreSubmitted",
      "type": "event"
    },
    {
      "anonymous": false,
      "inputs": [
        {
          "indexed": true,
          "internalType": "uint256",
          "name": "tokenId",
          "type": "uint256"
        },
        {
          "indexed": false,
          "internalType": "string",
          "name": "newName",
          "type": "string"
        }
      ],
      "name": "NameSet",
      "type": "event"
    },
    {
      "anonymous": false,
      "inputs": [
        {
          "indexed": false,
          "internalType": "uint256",
          "name": "_tokenId",
          "type": "uint256"
        }
      ],
      "name": "MetadataUpdate",
      "type": "event"
    },
    {
      "anonymous": false,
      "inputs": [
        {
          "indexed": true,
          "internalType": "uint256",
          "name": "tokenId",
          "type": "uint256"
        },
        {
          "indexed": false,
          "internalType": "string",
          "name": "newTraits",
          "type": "string"
        },
        {
          "indexed": false,
          "internalType": "string",
          "name": "newLore",
          "type": "string"
        }
      ],
      "name": "MonanimalEvolved",
      "type": "event"
    },
    {
      "anonymous": false,
      "inputs": [
        {
          "indexed": true,
          "internalType": "address",
          "name": "owner",
          "type": "address"
        },
        {
          "indexed": true,
          "internalType": "uint256",
          "name": "parentA",
          "type": "uint256"
        },
        {
          "indexed": true,
          "internalType": "uint256",
          "name": "parentB",
          "type": "uint256"
        },
        {
          "indexed": false,
          "internalType": "uint256",
          "name": "newTokenId",
          "type": "uint256"
        },
        {
          "indexed": false,
          "internalType": "string",
          "name": "newTraits",
          "type": "string"
        },
        {
          "indexed": false,
          "internalType": "string",
          "name": "newLore",
          "type": "string"
        }
      ],
      "name": "MonanimalFused",
      "type": "event"
    },
    {
      "anonymous": false,
      "inputs": [
        {
          "indexed": true,
          "internalType": "address",
          "name": "to",
          "type": "address"
        },
        {
          "indexed": true,
          "internalType": "uint256",
          "name": "tokenId",
          "type": "uint256"
        }
      ],
      "name": "MonanimalMinted",
      "type": "event"
    },
    {
      "anonymous": false,
      "inputs": [
        {
          "indexed": true,
          "internalType": "address",
          "name": "previousOwner",
          "type": "address"
        },
        {
          "indexed": true,
          "internalType": "address",
          "name": "newOwner",
          "type": "address"
        }
      ],
      "name": "OwnershipTransferred",
      "type": "event"
    },
    {
      "anonymous": false,
      "inputs": [
        {
          "indexed": true,
          "internalType": "address",
          "name": "from",
          "type": "address"
        },
        {
          "indexed": true,
          "internalType": "address",
          "name": "to",
          "type": "address"
        },
        {
          "indexed": true,
          "internalType": "uint256",
          "name": "tokenId",
          "type": "uint256"
        }
      ],
      "name": "Transfer",
      "type": "event"
    },
    {
      "inputs": [
        {
          "internalType": "address",
          "name": "to",
          "type": "address"
        },
        {
          "internalType": "uint256",
          "name": "tokenId",
          "type": "uint256"
        }
      ],
      "name": "approve",
      "outputs": [],
      "stateMutability": "nonpayable",
      "type": "function"
    },
    {
      "inputs": [
        {
          "internalType": "address",
          "name": "owner",
          "type": "address"
        }
      ],
      "name": "balanceOf",
      "outputs": [
        {
          "internalType": "uint256",
          "name": "",
          "type": "uint256"
        }
      ],
      "stateMutability": "view",
      "type": "function"
    },
    {
      "inputs": [
        {
          "internalType": "uint256",
          "name": "tokenId",
          "type": "uint256"
        }
      ],
      "name": "burn",
      "outputs": [],
      "stateMutability": "nonpayable",
      "type": "function"
    },
    {
      "inputs": [
        {
          "internalType": "uint256",
          "name": "tokenId",
          "type": "uint256"
        },
        {
          "internalType": "string",
          "name": "newTraits",
          "type": "string"
        },
        {
          "internalType": "string",
          "name": "newLore",
          "type": "string"
        },
        {
          "internalType": "string",
          "name": "newTokenURI",
          "type": "string"
        }
      ],
      "name": "evolve",
      "outputs": [],
      "stateMutability": "nonpayable",
      "type": "function"
    },
    {
      "inputs": [
        {
          "internalType": "uint256",
          "name": "parentA",
          "type": "uint256"
        },
        {
          "internalType": "uint256",
          "name": "parentB",
          "type": "uint256"
        },
        {
          "internalType": "string",
          "name": "fusedTraits",
          "type": "string"
        },
        {
          "internalType": "string",
          "name": "fusedLore",
          "type": "string"
        },
        {
          "internalType": "string",
          "name": "fusedTokenURI",
          "type": "string"
        }
      ],
      "name": "fuse",
      "outputs": [],
      "stateMutability": "nonpayable",
      "type": "function"
    },
    {
      "inputs": [
        {
          "internalType": "uint256",
          "name": "tokenId",
          "type": "uint256"
        }
      ],
      "name": "getApproved",
      "outputs": [
        {
          "internalType": "address",
          "name": "",
          "type": "address"
        }
      ],
      "stateMutability": "view",
      "type": "function"
    },
    {
      "inputs": [
        {
          "internalType": "address",
          "name": "owner",
          "type": "address"
        },
        {
          "internalType": "address",
          "name": "operator",
          "type": "address"
        }
      ],
      "name": "isApprovedForAll",
      "outputs": [
        {
          "internalType": "bool",
          "name": "",
          "type": "bool"
        }
      ],
      "stateMutability": "view",
      "type": "function"
    },
    {
      "inputs": [
        {
          "internalType": "uint256",
          "name": "",
          "type": "uint256"
        }
      ],
      "name": "lore",
      "outputs": [
        {
          "internalType": "string",
          "name": "",
          "type": "string"
        }
      ],
      "stateMutability": "view",
      "type": "function"
    },
    {
      "inputs": [
        {
          "internalType": "string",
          "name": "initialTraits",
          "type": "string"
        },
        {
          "internalType": "string",
          "name": "initialLore",
          "type": "string"
        },
        {
          "internalType": "string",
          "name": "tokenURI",
          "type": "string"
        }
      ],
      "name": "mint",
      "outputs": [],
      "stateMutability": "nonpayable",
      "type": "function"
    },
    {
      "inputs": [],
      "name": "name",
      "outputs": [
        {
          "internalType": "string",
          "name": "",
          "type": "string"
        }
      ],
      "stateMutability": "view",
      "type": "function"
    },
    {
      "inputs": [],
      "name": "nextTokenId",
      "outputs": [
        {
          "internalType": "uint256",
          "name": "",
          "type": "uint256"
        }
      ],
      "stateMutability": "view",
      "type": "function"
    },
    {
      "inputs": [],
      "name": "owner",
      "outputs": [
        {
          "internalType": "address",
          "name": "",
          "type": "address"
        }
      ],
      "stateMutability": "view",
      "type": "function"
    },
    {
      "inputs": [
        {
          "internalType": "uint256",
          "name": "tokenId",
          "type": "uint256"
        }
      ],
      "name": "ownerOf",
      "outputs": [
        {
          "internalType": "address",
          "name": "",
          "type": "address"
        }
      ],
      "stateMutability": "view",
      "type": "function"
    },
    {
      "inputs": [],
      "name": "renounceOwnership",
      "outputs": [],
      "stateMutability": "nonpayable",
      "type": "function"
    },
    {
      "inputs": [
        {
          "internalType": "address",
          "name": "from",
          "type": "address"
        },
        {
          "internalType": "address",
          "name": "to",
          "type": "address"
        },
        {
          "internalType": "uint256",
          "name": "tokenId",
          "type": "uint256"
        }
      ],
      "name": "safeTransferFrom",
      "outputs": [],
      "stateMutability": "nonpayable",
      "type": "function"
    },
    {
      "inputs": [
        {
          "internalType": "address",
          "name": "from",
          "type": "address"
        },
        {
          "internalType": "address",
          "name": "to",
          "type": "address"
        },
        {
          "internalType": "uint256",
          "name": "tokenId",
          "type": "uint256"
        },
        {
          "internalType": "bytes",
          "name": "data",
          "type": "bytes"
        }
      ],
      "name": "safeTransferFrom",
      "outputs": [],
      "stateMutability": "nonpayable",
      "type": "function"
    },
    {
      "inputs": [
        {
          "internalType": "address",
          "name": "operator",
          "type": "address"
        },
        {
          "internalType": "bool",
          "name": "approved",
          "type": "bool"
        }
      ],
      "name": "setApprovalForAll",
      "outputs": [],
      "stateMutability": "nonpayable",
      "type": "function"
    },
    {
      "inputs": [
        {
          "internalType": "uint256",
          "name": "tokenId",
          "type": "uint256"
        },
        {
          "internalType": "string",
          "name": "newLore",
          "type": "string"
        }
      ],
      "name": "submitLore",
      "outputs": [],
      "stateMutability": "nonpayable",
      "type": "function"
    },
    {
      "inputs": [
        {
          "internalType": "uint256",
          "name": "tokenId",
          "type": "uint256"
        },
        {
          "internalType": "string",
          "name": "newName",
          "type": "string"
        }
      ],
      "name": "setName",
      "outputs": [],
      "stateMutability": "nonpayable",
      "type": "function"
    },
    {
      "inputs": [
        {
          "internalType": "bytes4",
          "name": "interfaceId",
          "type": "bytes4"
        }
      ],
      "name": "supportsInterface",
      "outputs": [
        {
          "internalType": "bool",
          "name": "",
          "type": "bool"
        }
      ],
      "stateMutability": "view",
      "type": "function"
    },
    {
      "inputs": [],
      "name": "symbol",
      "outputs": [
        {
          "internalType": "string",
          "name": "",
          "type": "string"
        }
      ],
      "stateMutability": "view",
      "type": "function"
    },
    {
      "inputs": [
        {
          "internalType": "uint256",
          "name": "tokenId",
          "type": "uint256"
        }
      ],
      "name": "tokenURI",
      "outputs": [
        {
          "internalType": "string",
          "name": "",
          "type": "string"
        }
      ],
      "stateMutability": "view",
      "type": "function"
    },
    {
      "inputs": [
        {
          "internalType": "uint256",
          "name": "",
          "type": "uint256"
        }
      ],
      "name": "names",
      "outputs": [
        {
          "internalType": "string",
          "name": "",
          "type": "string"
        }
      ],
      "stateMutability": "view",
      "type": "function"
    },
    {
      "inputs": [
        {
          "internalType": "uint256",
          "name": "",
          "type": "uint256"
        }
      ],
      "name": "traits",
      "outputs": [
        {
          "internalType": "string",
          "name": "",
          "type": "string"
        }
      ],
      "stateMutability": "view",
      "type": "function"
    },
    {
      "inputs": [
        {
          "internalType": "address",
          "name": "from",
          "type": "address"
        },
        {
          "internalType": "address",
          "name": "to",
          "type": "address"
        },
        {
          "internalType": "uint256",
          "name": "tokenId",
          "type": "uint256"
        }
      ],
      "name": "transferFrom",
      "outputs": [],
      "stateMutability": "nonpayable",
      "type": "function"
    },
    {
      "inputs": [
        {
          "internalType": "address",
          "name": "newOwner",
          "type": "address"
        }
      ],
      "name": "transferOwnership",
      "outputs": [],
      "stateMutability": "nonpayable",
      "type": "function"
    }
  ],
  "bytecode": "0x608060405234801561001057600080fd5b50336040518060400160405280600c81526020017f4d6f6e616e696d616c4e465400000000000000000000000000000000000000008152506040518060400160405280600481526020017f4d4f4e4100000000000000000000000000000000000000000000000000000000815250816000908161008d919061043d565b50806001908161009d919061043d565b505050600073ffffffffffffffffffffffffffffffffffffffff168173ffffffffffffffffffffffffffffffffffffffff16036101125760006040517f1e4fbdf70000000000000000000000000000000000000000000000000000000081526004016101099190610550565b60405180910390fd5b6101218161012760201b60201c565b5061056b565b6000600760009054906101000a900473ffffffffffffffffffffffffffffffffffffffff16905081600760006101000a81548173ffffffffffffffffffffffffffffffffffffffff021916908373ffffffffffffffffffffffffffffffffffffffff1602179055508173ffffffffffffffffffffffffffffffffffffffff168173ffffffffffffffffffffffffffffffffffffffff167f8be0079c531659141344cd1fd0a4f28419497f9722a3daafe3b4186f6b6457e060405160405180910390a35050565b600081519050919050565b7f4e487b7100000000000000000000000000000000000000000000000000000000600052604160045260246000fd5b7f4e487b7100000000000000000000000000000000000000000000000000000000600052602260045260246000fd5b6000600282049050600182168061026e57607f821691505b60208210810361028157610280610227565b5b50919050565b60008190508160005260206000209050919050565b60006020601f8301049050919050565b600082821b905092915050565b6000600883026102e97fffffffffffffffffffffffffffffffffffffffffffffffffffffffffffffffff826102ac565b6102f386836102ac565b95508019841693508086168417925050509392505050565b6000819050919050565b6000819050919050565b600061033a6103356103308461030b565b610315565b61030b565b9050919050565b6000819050919050565b6103548361031f565b61036861036082610341565b8484546102b9565b825550505050565b600090565b61037d610370565b61038881848461034b565b505050565b5b818110156103ac576103a1600082610375565b60018101905061038e565b5050565b601f8211156103f1576103c281610287565b6103cb8461029c565b810160208510156103da578190505b6103ee6103e68561029c565b83018261038d565b50505b505050565b600082821c905092915050565b6000610414600019846008026103f6565b1980831691505092915050565b600061042d8383610403565b9150826002028217905092915050565b610446826101ed565b67ffffffffffffffff81111561045f5761045e6101f8565b5b6104698254610256565b6104748282856103b0565b600060209050601f8311600181146104a75760008415610495578287015190505b61049f8582610421565b865550610507565b601f1984166104b586610287565b60005b828110156104dd578489015182556001820191506020850194506020810190506104b8565b868310156104fa57848901516104f6601f891682610403565b8355505b6001600288020188555050505b505050505050565b600073ffffffffffffffffffffffffffffffffffffffff82169050919050565b600061053a8261050f565b9050919050565b61054a8161052f565b82525050565b60006020820190506105656000830184610541565b92915050565b61345d8061057a6000396000f3fe608060405234801561001057600080fd5b50600436106101585760003560e01c8063715018a6116100c3578063b88d4fde1161007c578063b88d4fde146103af578063c786024c146103cb578063c87b56dd146103fb578063d645ddf61461042b578063e985e9c514610447578063f2fde38b1461047757610158565b8063715018a6146103135780637240bce11461031d57806375794a3c146103395780638da5cb5b1461035757806395d89b4114610375578063a22cb4651461039357610158565b80633ccf6e66116101155780633ccf6e66146102435780633f6c32711461025f57806342842e0e1461027b57806342966c68146102975780636352211e146102b357806370a08231146102e357610158565b806301ffc9a71461015d57806306fdde031461018d578063081812fc146101ab578063095ea7b3146101db57806323b872dd146101f75780632d72225b14610213575b600080fd5b6101776004803603810190610172919061230e565b610493565b6040516101849190612356565b60405180910390f35b6101956104f4565b6040516101a29190612401565b60405180910390f35b6101c560048036038101906101c09190612459565b610586565b6040516101d291906124c7565b60405180910390f35b6101f560048036038101906101f0919061250e565b6105a2565b005b610211600480360381019061020c919061254e565b6105b8565b005b61022d60048036038101906102289190612459565b6106ba565b60405161023a9190612401565b60405180910390f35b61025d600480360381019061025891906126d6565b61075a565b005b61027960048036038101906102749190612791565b61085c565b005b6102956004803603810190610290919061254e565b610a69565b005b6102b160048036038101906102ac9190612459565b610a89565b005b6102cd60048036038101906102c89190612459565b610ade565b6040516102da91906124c7565b60405180910390f35b6102fd60048036038101906102f89190612860565b610af0565b60405161030a919061289c565b60405180910390f35b61031b610baa565b005b610337600480360381019061033291906128b7565b610bbe565b005b610341610c91565b60405161034e919061289c565b60405180910390f35b61035f610c97565b60405161036c91906124c7565b60405180910390f35b61037d610cc1565b60405161038a9190612401565b60405180910390f35b6103ad60048036038101906103a8919061293f565b610d53565b005b6103c960048036038101906103c49190612a20565b610d69565b005b6103e560048036038101906103e09190612459565b610d8e565b6040516103f29190612401565b60405180910390f35b61041560048036038101906104109190612459565b610e2e565b6040516104229190612401565b60405180910390f35b61044560048036038101906104409190612aa3565b610f41565b005b610461600480360381019061045c9190612b4a565b610ffc565b60405161046e9190612356565b60405180910390f35b610491600480360381019061048c9190612860565b611090565b005b6000634906490660e01b7bffffffffffffffffffffffffffffffffffffffffffffffffffffffff1916827bffffffffffffffffffffffffffffffffffffffffffffffffffffffff191614806104ed57506104ec82611116565b5b9050919050565b60606000805461050390612bb9565b80601f016020809104026020016040519081016040528092919081815260200182805461052f90612bb9565b801561057c5780601f106105515761010080835404028352916020019161057c565b820191906000526020600020905b81548152906001019060200180831161055f57829003601f168201915b5050505050905090565b6000610591826111f8565b5061059b82611280565b9050919050565b6105b482826105af6112bd565b6112c5565b5050565b600073ffffffffffffffffffffffffffffffffffffffff168273ffffffffffffffffffffffffffffffffffffffff160361062a5760006040517f64a0ae9200000000000000000000000000000000000000000000000000000000815260040161062191906124c7565b60405180910390fd5b600061063e83836106396112bd565b6112d7565b90508373ffffffffffffffffffffffffffffffffffffffff168173ffffffffffffffffffffffffffffffffffffffff16146106b4578382826040517f64283d7b0000000000000000000000000000000000000000000000000000000081526004016106ab93929190612bea565b60405180910390fd5b50505050565b600a60205280600052604060002060009150905080546106d990612bb9565b80601f016020809104026020016040519081016040528092919081815260200182805461070590612bb9565b80156107525780601f1061072757610100808354040283529160200191610752565b820191906000526020600020905b81548152906001019060200180831161073557829003601f168201915b505050505081565b3373ffffffffffffffffffffffffffffffffffffffff1661077a85610ade565b73ffffffffffffffffffffffffffffffffffffffff16146107d0576040517f08c379a00000000000000000000000000000000000000000000000000000000081526004016107c790612c93565b60405180910390fd5b82600a600086815260200190815260200160002090816107f09190612e5f565b50816009600086815260200190815260200160002090816108119190612e5f565b5061081c84826114f1565b837f2d6b975cb5c38a57b2f1ef875c2974f8453aaf7f6351cdf26142acb303ebeabd848460405161084e929190612f31565b60405180910390a250505050565b3373ffffffffffffffffffffffffffffffffffffffff1661087c86610ade565b73ffffffffffffffffffffffffffffffffffffffff16146108d2576040517f08c379a00000000000000000000000000000000000000000000000000000000081526004016108c990612fb4565b60405180910390fd5b3373ffffffffffffffffffffffffffffffffffffffff166108f285610ade565b73ffffffffffffffffffffffffffffffffffffffff1614610948576040517f08c379a000000000000000000000000000000000000000000000000000000000815260040161093f90613020565b60405180910390fd5b83850361098a576040517f08c379a00000000000000000000000000000000000000000000000000000000081526004016109819061308c565b60405180910390fd5b6109938561154d565b61099c8461154d565b6000600860008154809291906109b1906130db565b9190505590506109c133826115d3565b83600a600083815260200190815260200160002090816109e19190612e5f565b5082600960008381526020019081526020016000209081610a029190612e5f565b50610a0d81836114f1565b84863373ffffffffffffffffffffffffffffffffffffffff167fec9f1fe042aecacc19cbae79d68d4bd9103e142669515d10b25a2371ca915a1f848888604051610a5993929190613123565b60405180910390a4505050505050565b610a8483838360405180602001604052806000815250610d69565b505050565b610a9333826115f1565b610ad2576040517f08c379a0000000000000000000000000000000000000000000000000000000008152600401610ac9906131da565b60405180910390fd5b610adb8161154d565b50565b6000610ae9826111f8565b9050919050565b60008073ffffffffffffffffffffffffffffffffffffffff168273ffffffffffffffffffffffffffffffffffffffff1603610b635760006040517f89c62b64000000000000000000000000000000000000000000000000000000008152600401610b5a91906124c7565b60405180910390fd5b600360008373ffffffffffffffffffffffffffffffffffffffff1673ffffffffffffffffffffffffffffffffffffffff168152602001908152602001600020549050919050565b610bb2611686565b610bbc600061170d565b565b3373ffffffffffffffffffffffffffffffffffffffff16610bde83610ade565b73ffffffffffffffffffffffffffffffffffffffff1614610c34576040517f08c379a0000000000000000000000000000000000000000000000000000000008152600401610c2b9061326c565b60405180910390fd5b80600960008481526020019081526020016000209081610c549190612e5f565b50817f429c0f769e4d36948f1cf20af785ac48e1b4ead39ab9238b98304adc3406cf4582604051610c859190612401565b60405180910390a25050565b60085481565b6000600760009054906101000a900473ffffffffffffffffffffffffffffffffffffffff16905090565b606060018054610cd090612bb9565b80601f0160208091040260200160405190810160405280929190818152602001828054610cfc90612bb9565b8015610d495780601f10610d1e57610100808354040283529160200191610d49565b820191906000526020600020905b815481529060010190602001808311610d2c57829003601f168201915b5050505050905090565b610d65610d5e6112bd565b83836117d3565b5050565b610d748484846105b8565b610d88610d7f6112bd565b85858585611942565b50505050565b60096020528060005260406000206000915090508054610dad90612bb9565b80601f0160208091040260200160405190810160405280929190818152602001828054610dd990612bb9565b8015610e265780601f10610dfb57610100808354040283529160200191610e26565b820191906000526020600020905b815481529060010190602001808311610e0957829003601f168201915b505050505081565b6060610e39826111f8565b506000600660008481526020019081526020016000208054610e5a90612bb9565b80601f0160208091040260200160405190810160405280929190818152602001828054610e8690612bb9565b8015610ed35780601f10610ea857610100808354040283529160200191610ed3565b820191906000526020600020905b815481529060010190602001808311610eb657829003601f168201915b505050505090506000610ee4611af3565b90506000815103610ef9578192505050610f3c565b600082511115610f2e578082604051602001610f169291906132c8565b60405160208183030381529060405292505050610f3c565b610f3784611b0a565b925050505b919050565b600060086000815480929190610f56906130db565b919050559050610f6633826115d3565b83600a60008381526020019081526020016000209081610f869190612e5f565b5082600960008381526020019081526020016000209081610fa79190612e5f565b50610fb281836114f1565b803373ffffffffffffffffffffffffffffffffffffffff167ff747fceaacd50f439368b3546fda4f80093985c037d8eeaff96546170d61506a60405160405180910390a350505050565b6000600560008473ffffffffffffffffffffffffffffffffffffffff1673ffffffffffffffffffffffffffffffffffffffff16815260200190815260200160002060008373ffffffffffffffffffffffffffffffffffffffff1673ffffffffffffffffffffffffffffffffffffffff16815260200190815260200160002060009054906101000a900460ff16905092915050565b611098611686565b600073ffffffffffffffffffffffffffffffffffffffff168173ffffffffffffffffffffffffffffffffffffffff160361110a5760006040517f1e4fbdf700000000000000000000000000000000000000000000000000000000815260040161110191906124c7565b60405180910390fd5b6111138161170d565b50565b60007f80ac58cd000000000000000000000000000000000000000000000000000000007bffffffffffffffffffffffffffffffffffffffffffffffffffffffff1916827bffffffffffffffffffffffffffffffffffffffffffffffffffffffff191614806111e157507f5b5e139f000000000000000000000000000000000000000000000000000000007bffffffffffffffffffffffffffffffffffffffffffffffffffffffff1916827bffffffffffffffffffffffffffffffffffffffffffffffffffffffff1916145b806111f157506111f082611b73565b5b9050919050565b60008061120483611bdd565b9050600073ffffffffffffffffffffffffffffffffffffffff168173ffffffffffffffffffffffffffffffffffffffff160361127757826040517f7e27328900000000000000000000000000000000000000000000000000000000815260040161126e919061289c565b60405180910390fd5b80915050919050565b60006004600083815260200190815260200160002060009054906101000a900473ffffffffffffffffffffffffffffffffffffffff169050919050565b600033905090565b6112d28383836001611c1a565b505050565b6000806112e384611bdd565b9050600073ffffffffffffffffffffffffffffffffffffffff168373ffffffffffffffffffffffffffffffffffffffff161461132557611324818486611ddf565b5b600073ffffffffffffffffffffffffffffffffffffffff168173ffffffffffffffffffffffffffffffffffffffff16146113b657611367600085600080611c1a565b6001600360008373ffffffffffffffffffffffffffffffffffffffff1673ffffffffffffffffffffffffffffffffffffffff168152602001908152602001600020600082825403925050819055505b600073ffffffffffffffffffffffffffffffffffffffff168573ffffffffffffffffffffffffffffffffffffffff1614611439576001600360008773ffffffffffffffffffffffffffffffffffffffff1673ffffffffffffffffffffffffffffffffffffffff168152602001908152602001600020600082825401925050819055505b846002600086815260200190815260200160002060006101000a81548173ffffffffffffffffffffffffffffffffffffffff021916908373ffffffffffffffffffffffffffffffffffffffff160217905550838573ffffffffffffffffffffffffffffffffffffffff168273ffffffffffffffffffffffffffffffffffffffff167fddf252ad1be2c89b69c2b068fc378daa952ba7f163c4a11628f55a4df523b3ef60405160405180910390a4809150509392505050565b806006600084815260200190815260200160002090816115119190612e5f565b507ff8e1a15aba9398e019f0b49df1a4fde98ee17ae345cb5f6b5e2c27f5033e8ce782604051611541919061289c565b60405180910390a15050565b600061155c60008360006112d7565b9050600073ffffffffffffffffffffffffffffffffffffffff168173ffffffffffffffffffffffffffffffffffffffff16036115cf57816040517f7e2732890000000000000000000000000000000000000000000000000000000081526004016115c6919061289c565b60405180910390fd5b5050565b6115ed828260405180602001604052806000815250611ea3565b5050565b6000806115fd83610ade565b90508073ffffffffffffffffffffffffffffffffffffffff168473ffffffffffffffffffffffffffffffffffffffff16148061166c57508373ffffffffffffffffffffffffffffffffffffffff1661165484610586565b73ffffffffffffffffffffffffffffffffffffffff16145b8061167d575061167c8185610ffc565b5b91505092915050565b61168e6112bd565b73ffffffffffffffffffffffffffffffffffffffff166116ac610c97565b73ffffffffffffffffffffffffffffffffffffffff161461170b576116cf6112bd565b6040517f118cdaa700000000000000000000000000000000000000000000000000000000815260040161170291906124c7565b60405180910390fd5b565b6000600760009054906101000a900473ffffffffffffffffffffffffffffffffffffffff16905081600760006101000a81548173ffffffffffffffffffffffffffffffffffffffff021916908373ffffffffffffffffffffffffffffffffffffffff1602179055508173ffffffffffffffffffffffffffffffffffffffff168173ffffffffffffffffffffffffffffffffffffffff167f8be0079c531659141344cd1fd0a4f28419497f9722a3daafe3b4186f6b6457e060405160405180910390a35050565b600073ffffffffffffffffffffffffffffffffffffffff168273ffffffffffffffffffffffffffffffffffffffff160361184457816040517f5b08ba1800000000000000000000000000000000000000000000000000000000815260040161183b91906124c7565b60405180910390fd5b80600560008573ffffffffffffffffffffffffffffffffffffffff1673ffffffffffffffffffffffffffffffffffffffff16815260200190815260200160002060008473ffffffffffffffffffffffffffffffffffffffff1673ffffffffffffffffffffffffffffffffffffffff16815260200190815260200160002060006101000a81548160ff0219169083151502179055508173ffffffffffffffffffffffffffffffffffffffff168373ffffffffffffffffffffffffffffffffffffffff167f17307eab39ab6107e8899845ad3d59bd9653f200f220920489ca2b5937696c31836040516119359190612356565b60405180910390a3505050565b60008373ffffffffffffffffffffffffffffffffffffffff163b1115611aec578273ffffffffffffffffffffffffffffffffffffffff1663150b7a02868685856040518563ffffffff1660e01b81526004016119a19493929190613341565b6020604051808303816000875af19250505080156119dd57506040513d601f19601f820116820180604052508101906119da91906133a2565b60015b611a61573d8060008114611a0d576040519150601f19603f3d011682016040523d82523d6000602084013e611a12565b606091505b506000815103611a5957836040517f64a0ae92000000000000000000000000000000000000000000000000000000008152600401611a5091906124c7565b60405180910390fd5b805181602001fd5b63150b7a0260e01b7bffffffffffffffffffffffffffffffffffffffffffffffffffffffff1916817bffffffffffffffffffffffffffffffffffffffffffffffffffffffff191614611aea57836040517f64a0ae92000000000000000000000000000000000000000000000000000000008152600401611ae191906124c7565b60405180910390fd5b505b5050505050565b606060405180602001604052806000815250905090565b6060611b15826111f8565b506000611b20611af3565b90506000815111611b405760405180602001604052806000815250611b6b565b80611b4a84611ec7565b604051602001611b5b9291906132c8565b6040516020818303038152906040525b915050919050565b60007f01ffc9a7000000000000000000000000000000000000000000000000000000007bffffffffffffffffffffffffffffffffffffffffffffffffffffffff1916827bffffffffffffffffffffffffffffffffffffffffffffffffffffffff1916149050919050565b60006002600083815260200190815260200160002060009054906101000a900473ffffffffffffffffffffffffffffffffffffffff169050919050565b8080611c535750600073ffffffffffffffffffffffffffffffffffffffff168273ffffffffffffffffffffffffffffffffffffffff1614155b15611d87576000611c63846111f8565b9050600073ffffffffffffffffffffffffffffffffffffffff168373ffffffffffffffffffffffffffffffffffffffff1614158015611cce57508273ffffffffffffffffffffffffffffffffffffffff168173ffffffffffffffffffffffffffffffffffffffff1614155b8015611ce15750611cdf8184610ffc565b155b15611d2357826040517fa9fbf51f000000000000000000000000000000000000000000000000000000008152600401611d1a91906124c7565b60405180910390fd5b8115611d8557838573ffffffffffffffffffffffffffffffffffffffff168273ffffffffffffffffffffffffffffffffffffffff167f8c5be1e5ebec7d5bd14f71427d1e84f3dd0314c0f7b2291e5b200ac8c7c3b92560405160405180910390a45b505b836004600085815260200190815260200160002060006101000a81548173ffffffffffffffffffffffffffffffffffffffff021916908373ffffffffffffffffffffffffffffffffffffffff16021790555050505050565b611dea838383611f95565b611e9e57600073ffffffffffffffffffffffffffffffffffffffff168373ffffffffffffffffffffffffffffffffffffffff1603611e5f57806040517f7e273289000000000000000000000000000000000000000000000000000000008152600401611e56919061289c565b60405180910390fd5b81816040517f177e802f000000000000000000000000000000000000000000000000000000008152600401611e959291906133cf565b60405180910390fd5b505050565b611ead8383612056565b611ec2611eb86112bd565b6000858585611942565b505050565b606060006001611ed68461214f565b01905060008167ffffffffffffffff811115611ef557611ef46125ab565b5b6040519080825280601f01601f191660200182016040528015611f275781602001600182028036833780820191505090505b509050600082602001820190505b600115611f8a578080600190039150507f3031323334353637383961626364656600000000000000000000000000000000600a86061a8153600a8581611f7e57611f7d6133f8565b5b04945060008503611f35575b819350505050919050565b60008073ffffffffffffffffffffffffffffffffffffffff168373ffffffffffffffffffffffffffffffffffffffff161415801561204d57508273ffffffffffffffffffffffffffffffffffffffff168473ffffffffffffffffffffffffffffffffffffffff16148061200e575061200d8484610ffc565b5b8061204c57508273ffffffffffffffffffffffffffffffffffffffff1661203483611280565b73ffffffffffffffffffffffffffffffffffffffff16145b5b90509392505050565b600073ffffffffffffffffffffffffffffffffffffffff168273ffffffffffffffffffffffffffffffffffffffff16036120c85760006040517f64a0ae920000000000000000000000000000000000000000000000000000000081526004016120bf91906124c7565b60405180910390fd5b60006120d6838360006112d7565b9050600073ffffffffffffffffffffffffffffffffffffffff168173ffffffffffffffffffffffffffffffffffffffff161461214a5760006040517f73c6ac6e00000000000000000000000000000000000000000000000000000000815260040161214191906124c7565b60405180910390fd5b505050565b600080600090507a184f03e93ff9f4daa797ed6e38ed64bf6a1f01000000000000000083106121ad577a184f03e93ff9f4daa797ed6e38ed64bf6a1f01000000000000000083816121a3576121a26133f8565b5b0492506040810190505b6d04ee2d6d415b85acef810000000083106121ea576d04ee2d6d415b85acef810000000083816121e0576121df6133f8565b5b0492506020810190505b662386f26fc10000831061221957662386f26fc10000838161220f5761220e6133f8565b5b0492506010810190505b6305f5e1008310612242576305f5e1008381612238576122376133f8565b5b0492506008810190505b612710831061226757612710838161225d5761225c6133f8565b5b0492506004810190505b6064831061228a57606483816122805761227f6133f8565b5b0492506002810190505b600a8310612299576001810190505b80915050919050565b6000604051905090565b600080fd5b600080fd5b60007fffffffff0000000000000000000000000000000000000000000000000000000082169050919050565b6122eb816122b6565b81146122f657600080fd5b50565b600081359050612308816122e2565b92915050565b600060208284031215612324576123236122ac565b5b6000612332848285016122f9565b91505092915050565b60008115159050919050565b6123508161233b565b82525050565b600060208201905061236b6000830184612347565b92915050565b600081519050919050565b600082825260208201905092915050565b60005b838110156123ab578082015181840152602081019050612390565b60008484015250505050565b6000601f19601f8301169050919050565b60006123d382612371565b6123dd818561237c565b93506123ed81856020860161238d565b6123f6816123b7565b840191505092915050565b6000602082019050818103600083015261241b81846123c8565b905092915050565b6000819050919050565b61243681612423565b811461244157600080fd5b50565b6000813590506124538161242d565b92915050565b60006020828403121561246f5761246e6122ac565b5b600061247d84828501612444565b91505092915050565b600073ffffffffffffffffffffffffffffffffffffffff82169050919050565b60006124b182612486565b9050919050565b6124c1816124a6565b82525050565b60006020820190506124dc60008301846124b8565b92915050565b6124eb816124a6565b81146124f657600080fd5b50565b600081359050612508816124e2565b92915050565b60008060408385031215612525576125246122ac565b5b6000612533858286016124f9565b925050602061254485828601612444565b9150509250929050565b600080600060608486031215612567576125666122ac565b5b6000612575868287016124f9565b9350506020612586868287016124f9565b925050604061259786828701612444565b9150509250925092565b600080fd5b600080fd5b7f4e487b7100000000000000000000000000000000000000000000000000000000600052604160045260246000fd5b6125e3826123b7565b810181811067ffffffffffffffff82111715612602576126016125ab565b5b80604052505050565b60006126156122a2565b905061262182826125da565b919050565b600067ffffffffffffffff821115612641576126406125ab565b5b61264a826123b7565b9050602081019050919050565b82818337600083830152505050565b600061267961267484612626565b61260b565b905082815260208101848484011115612695576126946125a6565b5b6126a0848285612657565b509392505050565b600082601f8301126126bd576126bc6125a1565b5b81356126cd848260208601612666565b91505092915050565b600080600080608085870312156126f0576126ef6122ac565b5b60006126fe87828801612444565b945050602085013567ffffffffffffffff81111561271f5761271e6122b1565b5b61272b878288016126a8565b935050604085013567ffffffffffffffff81111561274c5761274b6122b1565b5b612758878288016126a8565b925050606085013567ffffffffffffffff811115612779576127786122b1565b5b612785878288016126a8565b91505092959194509250565b600080600080600060a086880312156127ad576127ac6122ac565b5b60006127bb88828901612444565b95505060206127cc88828901612444565b945050604086013567ffffffffffffffff8111156127ed576127ec6122b1565b5b6127f9888289016126a8565b935050606086013567ffffffffffffffff81111561281a576128196122b1565b5b612826888289016126a8565b925050608086013567ffffffffffffffff811115612847576128466122b1565b5b612853888289016126a8565b9150509295509295909350565b600060208284031215612876576128756122ac565b5b6000612884848285016124f9565b91505092915050565b61289681612423565b82525050565b60006020820190506128b1600083018461288d565b92915050565b600080604083850312156128ce576128cd6122ac565b5b60006128dc85828601612444565b925050602083013567ffffffffffffffff8111156128fd576128fc6122b1565b5b612909858286016126a8565b9150509250929050565b61291c8161233b565b811461292757600080fd5b50565b60008135905061293981612913565b92915050565b60008060408385031215612956576129556122ac565b5b6000612964858286016124f9565b92505060206129758582860161292a565b9150509250929050565b600067ffffffffffffffff82111561299a576129996125ab565b5b6129a3826123b7565b9050602081019050919050565b60006129c36129be8461297f565b61260b565b9050828152602081018484840111156129df576129de6125a6565b5b6129ea848285612657565b509392505050565b600082601f830112612a0757612a066125a1565b5b8135612a178482602086016129b0565b91505092915050565b60008060008060808587031215612a3a57612a396122ac565b5b6000612a48878288016124f9565b9450506020612a59878288016124f9565b9350506040612a6a87828801612444565b925050606085013567ffffffffffffffff811115612a8b57612a8a6122b1565b5b612a97878288016129f2565b91505092959194509250565b600080600060608486031215612abc57612abb6122ac565b5b600084013567ffffffffffffffff811115612ada57612ad96122b1565b5b612ae6868287016126a8565b935050602084013567ffffffffffffffff811115612b0757612b066122b1565b5b612b13868287016126a8565b925050604084013567ffffffffffffffff811115612b3457612b336122b1565b5b612b40868287016126a8565b9150509250925092565b60008060408385031215612b6157612b606122ac565b5b6000612b6f858286016124f9565b9250506020612b80858286016124f9565b9150509250929050565b7f4e487b7100000000000000000000000000000000000000000000000000000000600052602260045260246000fd5b60006002820490506001821680612bd157607f821691505b602082108103612be457612be3612b8a565b5b50919050565b6000606082019050612bff60008301866124b8565b612c0c602083018561288d565b612c1960408301846124b8565b949350505050565b7f596f75206d757374206f776e2074686973204d6f6e616e696d616c20746f206560008201527f766f6c7665206974000000000000000000000000000000000000000000000000602082015250565b6000612c7d60288361237c565b9150612c8882612c21565b604082019050919050565b60006020820190508181036000830152612cac81612c70565b9050919050565b60008190508160005260206000209050919050565b60006020601f8301049050919050565b600082821b905092915050565b600060088302612d157fffffffffffffffffffffffffffffffffffffffffffffffffffffffffffffffff82612cd8565b612d1f8683612cd8565b95508019841693508086168417925050509392505050565b6000819050919050565b6000612d5c612d57612d5284612423565b612d37565b612423565b9050919050565b6000819050919050565b612d7683612d41565b612d8a612d8282612d63565b848454612ce5565b825550505050565b600090565b612d9f612d92565b612daa818484612d6d565b505050565b5b81811015612dce57612dc3600082612d97565b600181019050612db0565b5050565b601f821115612e1357612de481612cb3565b612ded84612cc8565b81016020851015612dfc578190505b612e10612e0885612cc8565b830182612daf565b50505b505050565b600082821c905092915050565b6000612e3660001984600802612e18565b1980831691505092915050565b6000612e4f8383612e25565b9150826002028217905092915050565b612e6882612371565b67ffffffffffffffff811115612e8157612e806125ab565b5b612e8b8254612bb9565b612e96828285612dd2565b600060209050601f831160018114612ec95760008415612eb7578287015190505b612ec18582612e43565b865550612f29565b601f198416612ed786612cb3565b60005b82811015612eff57848901518255600182019150602085019450602081019050612eda565b86831015612f1c5784890151612f18601f891682612e25565b8355505b6001600288020188555050505b505050505050565b60006040820190508181036000830152612f4b81856123c8565b90508181036020830152612f5f81846123c8565b90509392505050565b7f596f75206d757374206f776e20706172656e7441000000000000000000000000600082015250565b6000612f9e60148361237c565b9150612fa982612f68565b602082019050919050565b60006020820190508181036000830152612fcd81612f91565b9050919050565b7f596f75206d757374206f776e20706172656e7442000000000000000000000000600082015250565b600061300a60148361237c565b915061301582612fd4565b602082019050919050565b6000602082019050818103600083015261303981612ffd565b9050919050565b7f43616e6e6f742066757365207468652073616d65204d6f6e616e696d616c0000600082015250565b6000613076601e8361237c565b915061308182613040565b602082019050919050565b600060208201905081810360008301526130a581613069565b9050919050565b7f4e487b7100000000000000000000000000000000000000000000000000000000600052601160045260246000fd5b60006130e682612423565b91507fffffffffffffffffffffffffffffffffffffffffffffffffffffffffffffffff8203613118576131176130ac565b5b600182019050919050565b6000606082019050613138600083018661288d565b818103602083015261314a81856123c8565b9050818103604083015261315e81846123c8565b9050949350505050565b7f596f75206d757374206f776e206f7220626520617070726f76656420746f206260008201527f75726e2074686973204d6f6e616e696d616c0000000000000000000000000000602082015250565b60006131c460328361237c565b91506131cf82613168565b604082019050919050565b600060208201905081810360008301526131f3816131b7565b9050919050565b7f596f75206d757374206f776e2074686973204d6f6e616e696d616c20746f207360008201527f75626d6974206c6f726500000000000000000000000000000000000000000000602082015250565b6000613256602a8361237c565b9150613261826131fa565b604082019050919050565b6000602082019050818103600083015261328581613249565b9050919050565b600081905092915050565b60006132a282612371565b6132ac818561328c565b93506132bc81856020860161238d565b80840191505092915050565b60006132d48285613297565b91506132e08284613297565b91508190509392505050565b600081519050919050565b600082825260208201905092915050565b6000613313826132ec565b61331d81856132f7565b935061332d81856020860161238d565b613336816123b7565b840191505092915050565b600060808201905061335660008301876124b8565b61336360208301866124b8565b613370604083018561288d565b81810360608301526133828184613308565b905095945050505050565b60008151905061339c816122e2565b92915050565b6000602082840312156133b8576133b76122ac565b5b60006133c68482850161338d565b91505092915050565b60006040820190506133e460008301856124b8565b6133f1602083018461288d565b9392505050565b7f4e487b7100000000000000000000000000000000000000000000000000000000600052601260045260246000fdfea26469706673582212203c29352af5169dc2d6a5d207efdd0404a80ece9e9cb4a9606aa2e331e5bfa51c64736f6c634300081c0033",
  "linkReferences": {},
  "deployedLinkReferences": {}
}